{
  "_format": "hh-sol-artifact-1",
  "contractName": "ErrorWorld",
  "sourceName": "contracts/ErrorWorld.sol",
  "abi": [
    {
      "anonymous": false,
      "inputs": [
        {
          "indexed": true,
          "internalType": "address",
          "name": "owner",
          "type": "address"
        },
        {
          "indexed": false,
          "internalType": "uint256",
          "name": "amount",
          "type": "uint256"
        }
      ],
      "name": "Deposit",
      "type": "event"
    },
    {
      "anonymous": false,
      "inputs": [
        {
          "indexed": true,
          "internalType": "address",
          "name": "from",
          "type": "address"
        },
        {
          "indexed": true,
          "internalType": "address",
          "name": "to",
          "type": "address"
        },
        {
          "indexed": false,
          "internalType": "uint256",
          "name": "amount",
          "type": "uint256"
        }
      ],
      "name": "Transfer",
      "type": "event"
    },
    {
      "anonymous": false,
      "inputs": [
        {
          "indexed": true,
          "internalType": "address",
          "name": "owner",
          "type": "address"
        },
        {
          "indexed": false,
          "internalType": "uint256",
          "name": "amount",
          "type": "uint256"
        }
      ],
      "name": "Withdraw",
      "type": "event"
    },
    {
      "inputs": [],
      "name": "myAssert",
      "outputs": [],
      "stateMutability": "view",
      "type": "function"
    },
    {
      "inputs": [
        {
          "internalType": "address",
          "name": "_account",
          "type": "address"
        },
        {
          "internalType": "uint256",
          "name": "_amount",
          "type": "uint256"
        }
      ],
      "name": "myRequire",
      "outputs": [],
      "stateMutability": "payable",
      "type": "function"
    },
    {
      "inputs": [
        {
          "internalType": "address",
          "name": "_account",
          "type": "address"
        },
        {
          "internalType": "uint256",
          "name": "_amount",
          "type": "uint256"
        }
      ],
      "name": "myRevert",
      "outputs": [],
      "stateMutability": "payable",
      "type": "function"
    },
    {
      "inputs": [],
      "name": "num",
      "outputs": [
        {
          "internalType": "uint256",
          "name": "",
          "type": "uint256"
        }
      ],
      "stateMutability": "view",
      "type": "function"
    }
  ],
  "bytecode": "0x608060405234801561001057600080fd5b506105d3806100206000396000f3fe60806040526004361061003f5760003560e01c80634951a217146100445780634e70b1dc146100605780634f2485531461008b578063f709648f146100a2575b600080fd5b61005e60048036038101906100599190610384565b6100be565b005b34801561006c57600080fd5b506100756101e6565b60405161008291906103d3565b60405180910390f35b34801561009757600080fd5b506100a06101ec565b005b6100bc60048036038101906100b79190610384565b610201565b005b60008060008473ffffffffffffffffffffffffffffffffffffffff1673ffffffffffffffffffffffffffffffffffffffff168152602001908152602001600020541161013f576040517f08c379a00000000000000000000000000000000000000000000000000000000081526004016101369061044b565b60405180910390fd5b806000808473ffffffffffffffffffffffffffffffffffffffff1673ffffffffffffffffffffffffffffffffffffffff168152602001908152602001600020600082825461018d919061049a565b925050819055508173ffffffffffffffffffffffffffffffffffffffff167f884edad9ce6fa2440d8a54cc123490eb96d2768479d49ff9c7366125a9424364826040516101da91906103d3565b60405180910390a25050565b60015481565b6000600154146101ff576101fe6104ce565b5b565b60008111610244576040517f08c379a000000000000000000000000000000000000000000000000000000000815260040161023b90610549565b60405180910390fd5b806000808473ffffffffffffffffffffffffffffffffffffffff1673ffffffffffffffffffffffffffffffffffffffff16815260200190815260200160002060008282546102929190610569565b925050819055508173ffffffffffffffffffffffffffffffffffffffff167fe1fffcc4923d04b559f4d29a8bfc6cda04eb5b0d3c460751c2402c5c5cc9109c826040516102df91906103d3565b60405180910390a25050565b600080fd5b600073ffffffffffffffffffffffffffffffffffffffff82169050919050565b600061031b826102f0565b9050919050565b61032b81610310565b811461033657600080fd5b50565b60008135905061034881610322565b92915050565b6000819050919050565b6103618161034e565b811461036c57600080fd5b50565b60008135905061037e81610358565b92915050565b6000806040838503121561039b5761039a6102eb565b5b60006103a985828601610339565b92505060206103ba8582860161036f565b9150509250929050565b6103cd8161034e565b82525050565b60006020820190506103e860008301846103c4565b92915050565b600082825260208201905092915050565b7f576861742061726520796f7520747279696e6720746f2077697468647261773f600082015250565b60006104356020836103ee565b9150610440826103ff565b602082019050919050565b6000602082019050818103600083015261046481610428565b9050919050565b7f4e487b7100000000000000000000000000000000000000000000000000000000600052601160045260246000fd5b60006104a58261034e565b91506104b08361034e565b92508282039050818111156104c8576104c761046b565b5b92915050565b7f4e487b7100000000000000000000000000000000000000000000000000000000600052600160045260246000fd5b7f576861742061726520796f7520747279696e6720746f206465706f7369743f00600082015250565b6000610533601f836103ee565b915061053e826104fd565b602082019050919050565b6000602082019050818103600083015261056281610526565b9050919050565b60006105748261034e565b915061057f8361034e565b92508282019050808211156105975761059661046b565b5b9291505056fea26469706673582212206a283782d98e89ba89eaa5f2365608c0a5d3ed766535173976c9f5b011d92b9a64736f6c63430008110033",
  "linkReferences": {},
  "deployedLinkReferences": {}
}